:020000040800F2
:1000000020E5002025D300082DD300089B1100080F
:1000100031D3000833D3000835D3000800000000B6
:1000200000000000000000000000000037D30008BE
:1000300039D3000800000000E71000084705000859
:100040003FD300083FD300083FD300083FD3000848
:100050003FD300083FD300083FD300083FD3000838
:100060003FD300083FD300083FD300083FD3000828
:100070004D0900083FD300083FD300083FD30008D4
:10008000290900083FD300083FD300083FD30008E8
:100090003FD300083FD300083FD300083FD30008F8
:1000A0003FD300083FD300083FD300083FD30008E8
:1000B0003FD300083FD300083FD300083FD30008D8
:1000C0003FD300083FD300083FD300083FD30008C8
:1000D0003FD30008F3080008170900083B0900088F
:1000E0003FD300083FD300083FD300083FD30008A8
:1000F0003FD300083FD300083FD300083FD3000898
:100100003FD300083FD300083FD300083FD3000887
:100110003FD300083FD300083FD300083FD3000877
:100120003FD300083FD300083FD300083FD3000867
:100130003FD300083FD300083FD300083FD3000857
:100140003FD300083FD300083FD300083FD3000847
:10015000050900083FD300083FD300083FD300083B
:100160003FD300083FD300083FD300083FD3000827
:100170003FD300083FD300083FD300083FD3000817
:100180003FD300083FD3000800F002F800F069F800
:100190000AA090E8000C82448344AAF10107DA45E2
:1001A00001D100F05EF8AFF2090EBAE80F0013F0CB
:1001B000010F18BFFB1A43F0010318476421030025
:1001C000842103000A444FF0000C10F8013B13F0A7
:1001D000070408BF10F8014B1D1108BF10F8015BA0
:1001E000641E05D010F8016B641E01F8016BF9D193
:1001F00013F0080F1EBF10F8014BAD1C0C1B09D1EA
:100200006D1E58BF01F801CBFAD505E014F8016B5B
:1002100001F8016B6D1EF9D59142D6D370470000ED
:100220000023002400250026103A28BF78C1FBD8FF
:10023000520728BF30C148BF0B6070471FB527F079
:1002400067FF9DE8030027F0CFFD27F0DDFE0400E7
:100250000020002127F046FF401C60601FBD10B544
:1002600010BD27F0ACFE1146FFF7E8FF01F04AFB96
:1002700027F0DCFE03B4FFF7F2FF03BC27F00CFF0E
:1002800025F0F0FD07E0012017F0E8F918F017FE5F
:10029000012000F0E1F8F6E770B505460C4645F29E
:1002A000555027F009FB284627F009FB204627F088
:1002B00009FB27F00AFB27F00DFB70BD10B527F0F6
:1002C00004FB10BD1CB50121042027F0A1F94FF457
:1002D0000060009001208DF8040000208DF80600D9
:1002E00003208DF8050001208DF8070069461648A7
:1002F00026F0C6FC4FF40061134826F03FFD4FF492
:1003000016710420FFF7C8FF1CBD08B5FFF7D6FF24
:1003100019E04FF6A06005231A4600210090084618
:1003200000F07AFE4FF47A7000F096F84FF47040C7
:1003300005231A4600210090084600F06DFE4FF498
:100340007A7000F089F8E4E7000802401CB500F07C
:1003500043F800F038FD0EF0D9FE25F030FA1420F5
:100360000A214FF400630022CDE900100D490EA0D0
:1003700005F09FFB044614B1204605F01EFB152036
:100380000A214FF400630022CDE9001009490AA0B8
:1003900005F08FFB044614B1204605F00EFB00204B
:1003A0001CBD0000810200084C43445F5445535477
:1003B000000000000B0300084C45440010B505F098
:1003C0005EF910BD10B505F068F910BD10B5044612
:1003D000204605F00BFD10BD1FB5684627F047F815
:1003E0004FF0E0200069C0F3800008B1019C01E0FB
:1003F0000198C4083348B4FBF0F0334908800A2060
:1004000048601FBD2DE9F047074600264FF0E02069
:10041000D0F814902C48008800FB07F8FFF7CEFFB7
:100420004FF0E020856911E04FF0E0208469AC4294
:100430000CD0AC4202D2281B064403E0A9EB040016
:10044000284406442546464500D300E0ECE700BFBB
:10045000FFF7B8FFBDE8F08770B5044601F0CDF9AD
:100460001A4909780843D0B103F034FCB8B91748E9
:10047000007810B901201549087013484068A0425F
:1004800006D811484068B4FBF0F63046FFF79EFFEF
:100490000D484068B4FBF0F100FB11440AE0002570
:1004A00005E04FF47A70FFF7ADFF681C85B2A542F6
:1004B000F7DB70BD4FF47A7104FB01F0FFF7A2FF88
:1004C00000BFF6E740420F000000002008000020B7
:1004D00010B500214FF0006025F0F8FD4FF4A0604A
:1004E00025F0BAFD10BD7FB5684626F0C0FF642137
:1004F0000198B0FBF1F4E4082146481EB0F1807F7A
:1005000000D31BE0481E4FF0E022506150170F222D
:10051000002807DA13071E0E164B00F00F052D1FDB
:100520005E5503E013071D0E134B1D5400BF002042
:100530004FF0E02290610720106100BF6FF00400CF
:1005400025F0DCFD7FBD10B503F096FB01F063F9EB
:1005500003F0A9FB10BD10B5FFF7BAFFFFF7C3FF0B
:100560000649074804F080F901F084F905A004F079
:100570000CF810BD18ED00E000E400E000000220DF
:1005800020E5002075617274310000007FB50546DA
:100590000C4625B96122FC49FCA004F086F824B978
:1005A0006222F949FEA004F080F8EE6B206800900A
:1005B000207900F00F00082803D10020ADF80400D6
:1005C00008E0207900F00F00092803D14FF4805093
:1005D000ADF804002079C0F3011018B90020ADF87F
:1005E000060007E02079C0F30110012802D1400382
:1005F000ADF806002079C0F3811018B90020ADF8DD
:10060000080011E02079C0F38110012804D14FF4D3
:10061000C060ADF8080007E02079C0F3811002281F
:1006200002D14002ADF808000020ADF80C000C200B
:10063000ADF80A006946306826F04DFC01213068AB
:1006400026F0D1FC002004B070BDF0B58FB0054697
:100650000E461746EC6BA661A06825F06DFD00BF45
:10066000A06825F092FE0028FAD1E068009020688A
:10067000001D0190029700200390A06904900020C3
:1006800005904FF4806006900020079008904FF48A
:100690008070099040020A9000200B9003200C907B
:1006A00000200D900E906946A06825F0E7FD0FB080
:1006B000F0BDF8B50546EC6BEE6C012240F224412A
:1006C000206826F046FD0121480526F0A1FF012102
:1006D000880526F09DFF3268A86CC0F38F2128465C
:1006E000FFF7B3FF2169A06825F07BFE01221021EE
:1006F000A06825F08AFE01224021206826F020FD16
:100700000121A06825F0F4FD207D8DF80000002077
:100710008DF801008DF8020001208DF80300684675
:1007200025F09FFCF8BD2DE9F04105460E46174621
:1007300025B98A229E4995A003F0B7FFEC6B032EE2
:1007400029D0102E13D0112E2BD194F9040000F0D3
:100750001F0201219140974A430942F8231000BF2C
:10076000002240F22551206826F0F3FC19E094F9AC
:10077000040000F01F02012191404209920002F1A1
:10078000E022C2F8001100BF012240F2255120688A
:1007900026F0DFFC05E0B7F5007F02D12846FFF721
:1007A00088FF00BF0020BDE8F08170B505460E4609
:1007B00025B9AB22804975A003F077FFEC6B40218F
:1007C000206826F0F8FC2068868000BF206800883A
:1007D00000F040000028F9D0012070BD70B504463B
:1007E00024B9BA22754969A003F05FFFE56B4FF0A9
:1007F000FF362868008800F0200010B12868808843
:10080000C6B2304670BD2DE9F0410546EC6B00F0F4
:1008100053FC8046A06825F08EFDA1690E1AE069A0
:10082000371AE661404600F04BFC2FB1032040EA46
:100830000721284606F01CFB206826F003FCBDE8D3
:10084000F0812DE9F0410646F46B2169A06825F09E
:10085000ACFDA8B100F030FC0746D4E906100D1A33
:100860000021E161384600F02BFC2DB1032040EA65
:100870000521304606F0FCFA2169A06825F0B1FD9B
:10088000BDE8F08170B50546EC6B2CB94FF495725C
:100890004B494CA003F009FF40F22551206826F097
:1008A00093FC40B10121284606F0E2FA40F22551BE
:1008B000206826F0C4FC40F22441206826F084FC25
:1008C00010B12846FFF79FFF40F22661206826F00E
:1008D0007BFC20B140F22661206826F0B0FC0821A4
:1008E000206826F05BFC012802D1206826F0AAFBD4
:1008F00070BD10B503F0C0F93648FFF7C3FF03F031
:10090000D2F910BD10B503F0B7F93248FFF799FFDF
:1009100003F0C9F910BD10B503F0AEF92E48FFF78A
:10092000B1FF03F0C0F910BD10B503F0A5F92A48D6
:10093000FFF787FF03F0B7F910BD10B503F09CF97E
:100940002648FFF79FFF03F0AEF910BD10B503F086
:1009500093F92248FFF775FF03F0A5F910BD10B514
:100960000121022026F054FE0121102026F0AAFECB
:100970000121084626F04CFE0121480426F091FE94
:10098000012108202CE000003081020873657269A3
:10099000616C20213D2052545F4E554C4C000000AC
:1009A00063666720213D2052545F4E554C4C000039
:1009B0004081020880E100E04E810208598102086E
:1009C000648102087561727420213D2052545F4E8B
:1009D000554C4C00AC0700200008002054080020B3
:1009E00026F016FE0121880426F05BFE10BD1CB522
:1009F00002208DF8040000208DF8060001208DF8FB
:100A0000070000208DF80500C02000900722062175
:100A1000414826F0C0F9072211463F4826F0BBF9AD
:100A200069463D4826F02CF90C200090072202214F
:100A30003A4826F0B0F907220321384826F0ABF9EE
:100A40006946364826F01CF94FF4407000900722A2
:100A50000821334826F09FF907220921304826F063
:100A60009AF969462E4826F00BF91CBD38B50446A4
:100A700020798DF8000000208DF8010001208DF80C
:100A800002008DF80300684625F0EBFA38BD1CB56E
:100A9000244903C9CDE90001FFF761FFFFF7A7FF74
:100AA000214C2248224908640846DDE90012C0E9C9
:100AB00011122046FFF7DAFF234640F203321DA150
:100AC0001B4806F07FF91D4C18481D49086408466C
:100AD000DDE90012C0E911122046FFF7C7FF2346E7
:100AE00040F2033217A1164806F06CF9174C0F4874
:100AF000174908640846DDE90012C0E911122046D2
:100B0000FFF7B4FF234640F2033212A1104806F06B
:100B100059F900201CBD0000000402400000024002
:100B2000000C0240708102080C0000201C810208A9
:100B3000AC07002075617274310000002C000020A9
:100B40000008002075617274320000004C00002023
:100B500054080020756172743300000000B5A1B024
:100B60000020209001217A2026F052FD0121084624
:100B700026F086FD4CF233701E9002208DF87C002A
:100B800000208DF87E0003208DF87D0001208DF877
:100B90007F001EA9F94826F073F84FF680701E906A
:100BA00002208DF87C0000208DF87E0003208DF857
:100BB0007D0001208DF87F001EA9F14826F060F825
:100BC0004FF400501E9002208DF87C0000208DF81C
:100BD0007E0003208DF87D0001208DF87F001EA986
:100BE000E64826F04DF880201E9002208DF87C000B
:100BF00000208DF87E0003208DF87D0001208DF807
:100C00007F001EA9DD4826F03BF804201E9001203D
:100C10008DF87C0000208DF87E0003208DF87D008B
:100C200001208DF87F001EA9D44826F029F80C2257
:100C30000021D24826F0AFF80C220121CF4826F03F
:100C4000AAF80C220821CD4826F0A5F80C2209218B
:100C5000CA4826F0A0F80C220A21C84826F09BF8C2
:100C60000C220E21C54826F096F80C220F21C3480D
:100C700026F091F80C220721C14826F08CF80C22AE
:100C80000821BF4826F087F80C220921BC4826F02D
:100C900082F80C220A21BA4826F07DF80C220B219A
:100CA000B74826F078F80C221146B54826F073F8BC
:100CB0000C220D21B24826F06EF80C220E21B0480D
:100CC00026F069F80C220F21AD4826F064F80C22BA
:100CD0000421AA4826F05FF80C220521A74826F037
:100CE0005AF80C220D21A54826F055F80C220721B0
:100CF000A24826F050F8062001900020029006201D
:100D0000039000200490059006904FF080500790CB
:100D100000200F901090119010201290002013903E
:100D200015901490169017904FF480501890002052
:100D300019904FF480401A9000201B9008A81C9036
:100D400001A81D900FA825F0E6FB0121002025F049
:100D500087FC21B000BD01B5BDF8000089490880BD
:100D600008BD01B5BDF800008649891C088008BD92
:100D700001B581B00020009009E002E00198401E1A
:100D8000019001980028F9D10098401C00904FF67E
:100D9000FF7100988842F0DB0CBD10B50421774844
:100DA00025F0ECFF42F21070FFF7E2FF04217348D8
:100DB00025F0E2FF42F21070FFF7DAFF10BD2C20A1
:100DC00070490880704710B5FFF7C8FEFFF7E5FFD0
:100DD0007820FFF7CDFF1120FFF7BDFF7820FFF748
:100DE000C7FFD020FFF7B7FF0720FFF7BAFF41206A
:100DF000FFF7B7FF1F20FFF7B4FFD120FFF7ABFFCE
:100E00000020FFF7AEFF2020FFF7ABFF0D20FFF71C
:100E1000A8FFD220FFF79FFF0320FFF7A2FF0020CB
:100E2000FFF79FFFC020FFF796FF1020FFF799FF05
:100E30003B20FFF796FF0020FFF793FF0220FFF70C
:100E400090FF1120FFF78DFFC520FFF784FF0220E0
:100E5000FFF787FFC820FFF77EFF0020FFF781FF25
:100E60000120FFF77EFF2020FFF77BFF0120FFF727
:100E700078FF1020FFF775FF0F20FFF772FF742037
:100E8000FFF76FFF6720FFF76CFF7720FFF769FF21
:100E90005020FFF766FF0F20FFF763FF1020FFF7DA
:100EA00060FFF820FFF757FF0120FFF75AFFFE20F1
:100EB000FFF751FF0020FFF754FF0220FFF751FF1B
:100EC0002A20FFF748FF0020FFF74BFF0020FFF725
:100ED00048FF0120FFF745FFDF20FFF742FF2B20EF
:100EE000FFF739FF0020FFF73CFF0020FFF739FF35
:100EF0000120FFF736FF3F20FFF733FF3620FFF7D3
:100F00002AFF2B20FFF72DFF3A20FFF724FF552063
:100F1000FFF727FF7820FFF72BFF2920FFF71BFFA4
:100F20007820FFF725FFFFF74AFF3220FFF794FAFA
:100F300010BD70B504460D461E462A20FFF70BFF74
:100F40002012FFF70EFFE0B2FFF70BFF1012FFF7C2
:100F500008FFD0B2FFF705FF2B20FFF7FCFE281299
:100F6000FFF7FFFEE8B2FFF7FCFE3012FFF7F9FED5
:100F7000F0B2FFF7F6FEFFF722FF70BD000C024053
:100F800000100240FEFF076010B502460C462A2002
:100F9000FFF7E1FE1012FFF7E4FED0B2FFF7E1FE2B
:100FA0000120FFF7DEFEDF20FFF7DBFE2B20FFF73F
:100FB000D2FE2012FFF7D5FEE0B2FFF7D2FE0120ED
:100FC000FFF7CFFE3F20FFF7CCFEFFF7F8FE10BD86
:100FD00010B502460C462A20FFF7BDFE1012FFF79F
:100FE000C0FED0B2FFF7BDFE0120FFF7BAFE3F20E2
:100FF000FFF7B7FE2B20FFF7AEFE2012FFF7B1FE82
:10100000E0B2FFF7AEFE0120FFF7ABFEDF20FFF7F7
:10101000A8FEFFF7D4FE10BD2DE9F04306460F46AB
:1010200014461D46DDF81C807819401E83B2301925
:10103000401E82B239463046FFF77BFF04FB05F9BC
:1010400002E01C48A0F80080B9F10000A9F10109F4
:10105000F7D1FFF7B4FEBDE8F0832DE9F04706466F
:101060000F4614461D46DDF820A04FF00008C1468B
:10107000681E83B2601E82B239463046FFF759FFC0
:1010800000BF10E04FF0000906E00A48A0F800A0F9
:1010900009F101001FFA80F9E81B4845F5DC08F169
:1010A00001001FFA80F8A01B4045EBDCFFF787FE2C
:1010B000BDE8F08700000860EFF3108072B670475B
:1010C00080F310887047434A1368012B04D04FF017
:1010D00001031360404A1060404A116040484FF0DD
:1010E000805101607047EFF3108272B63948016891
:1010F00051B34FF0000101603748016891B1EFF33F
:1011000009811EF0100F08BF21ED108B21E9F00FAF
:101110004FF000041EF0100F08BF012441F8044DE9
:10112000006801602D490968096808C9B1E8F00F35
:10113000002B18BFB1EC108B81F309884EF0100E14
:10114000002B18BF2EF0100E82F310884EF0040E04
:10115000704722490860EFF3148222F0040282F300
:1011600014881D494FF0000008601A494FF0010033
:1011700008601C484FF47F01D0F8002041EA0201CA
:10118000016017484FF080510160174800680068FF
:1011900080F3088861B662B670471EF0040F0CBF7A
:1011A000EFF30880EFF3098020E9F00F40F804ED39
:1011B00040F804ED1EF0040F0CBF80F3088880F3A4
:1011C000098800B500F029F95DF804EB4EF0040E33
:1011D00070470000740000206C00002070000020A8
:1011E00004ED00E020ED00E008ED00E0F0B504467D
:1011F0000D461646301D20F00700443801460022F7
:1012000003E0C54F41F82270521C112AF9D34D62F8
:101210004FF0000CC1F828C0C1F82CC0C1F830C094
:10122000C1F834C08B63CC634FF0807CC1F840C000
:1012300000270F60F0BDB9490860704710B5B8A02D
:1012400003F02EF9BA480188BAA003F029F9B8488A
:10125000008800F0010010B1BCA003F021F9B448EF
:10126000008800F0020010B1BBA003F019F9B048EB
:10127000008800F0040010B1BAA003F011F9AC48E6
:10128000008800F0080010B1B8A003F009F9A848E0
:10129000008800F4807010B1B6A003F001F9A448F2
:1012A000008800F4007010B1B5A003F0F9F89FA019
:1012B00003F0F6F810BD10B5B4A003F0F1F89C48A7
:1012C000401E0178B4A003F0EBF89948401E007866
:1012D00000F0010010B1B6A003F0E2F89448401EFF
:1012E000007800F0020010B1B4A003F0D9F89048E3
:1012F000401E007800F0040010B1B3A003F0D0F855
:101300008B48401E007800F0080010B1B2A003F036
:10131000C7F88748401E007800F0100010B1B1A057
:1013200003F0BEF88248401E007800F0800030B123
:101330007F480E300168ADA003F0B2F802E07BA058
:1013400003F0AEF810BD10B5ACA003F0A9F87848D2
:10135000801E0178AEA003F0A3F87548801E0078C7
:1013600000F0010010B1B0A003F09AF87048801EA0
:10137000007800F0020010B1AEA003F091F86C48C4
:10138000801E007800F0080010B1ADA003F088F8CE
:101390006748801E007800F0100010B1ABA003F089
:1013A0007FF86348801E007800F0800030B160480C
:1013B0000A300168A8A003F073F802E05BA003F014
:1013C0006FF810BD10B55A48801C006800F002008C
:1013D00010B1A5A003F064F85548801C006800F027
:1013E000804080B15248401E007808B1FFF763FF8B
:1013F0004F48801E007808B1FFF7A5FF4C480088D1
:1014000008B1FFF71BFF4A48801C006800F000404D
:1014100010B19BA003F044F810BD2DE9F041054642
:1014200005F128062C1D3D48006840B130463B4977
:101430000968884707460FB9BDE8F08100BF94A04E
:10144000216C03F02DF896A0616A03F029F898A0AA
:10145000A16A03F025F89AA0E16A03F021F89CA0A4
:10146000216B03F01DF89EA0616803F019F8A0A09D
:10147000A16803F015F8A2A0E16803F011F8A4A098
:10148000216903F00DF8A6A0616903F009F8A8A08E
:10149000A16903F005F8AAA0E16903F001F8ACA086
:1014A000216A02F0FDFFAEA0616B02F0F9FFB0A06F
:1014B000A16B02F0F5FFB2A0E16B02F0F1FF28781A
:1014C00000F0040048B104F06EF907463946B0A0B8
:1014D00002F0E6FF07F05EF802E0B5A002F0E0FFE0
:1014E000287800F0100010B9B8A002F0D9FFFFF77B
:1014F00069FF00BFFEE710B5B8A002F0D1FF4FF4BE
:10150000D972BA49BAA003F0D0F810BDB948084959
:101510001E39086070470000EFBEADDE7800002085
:101520007573616765206661756C743A0A00000026
:101530002AED00E05343425F434653525F55465302
:10154000523A30782530325820000000554E44453C
:1015500046494E5354522000494E56535441544527
:1015600020000000494E5650432000004E4F43508B
:1015700020000000554E414C49474E454420000094
:1015800044495642595A45524F2000006275732013
:101590006661756C743A0A005343425F4346535286
:1015A0005F424653523A30782530325820000000CE
:1015B00049425553455252200000000050524543C5
:1015C0004953455252200000494D5052454349531A
:1015D0004552522000000000554E53544B45525284
:1015E0002000000053544B45525220005343422DDB
:1015F0003E424641523A253038580A006D656D200A
:101600006D616E616765206661756C743A0A0000F1
:101610005343425F434653525F4D4653523A3078EC
:1016200025303258200000004941434356494F4C71
:10163000200000004441434356494F4C2000000025
:101640004D554E53544B4552522000004D53544B70
:1016500045525220000000005343422D3E4D4D4163
:10166000523A253038580A006661696C6564207604
:101670006563746F722066657463680A0000000019
:101680006465627567206576656E740A0000000007
:101690007073723A203078253038780A00000000E4
:1016A0007230303A203078253038780A0000000057
:1016B0007230313A203078253038780A0000000046
:1016C0007230323A203078253038780A0000000035
:1016D0007230333A203078253038780A0000000024
:1016E0007230343A203078253038780A0000000013
:1016F0007230353A203078253038780A0000000002
:101700007230363A203078253038780A00000000F0
:101710007230373A203078253038780A00000000DF
:101720007230383A203078253038780A00000000CE
:101730007230393A203078253038780A00000000BD
:101740007231303A203078253038780A00000000B5
:101750007231313A203078253038780A00000000A4
:101760007231323A203078253038780A0000000093
:10177000206C723A203078253038780A000000005A
:101780002070633A203078253038780A0000000055
:1017900068617264206661756C74206F6E20746875
:1017A000726561643A2025730D0A0D0A000000007D
:1017B00068617264206661756C74206F6E20686168
:1017C0006E646C65720D0A0D0A00000046505520CB
:1017D000616374697665210D0A0000007368757491
:1017E000646F776E2E2E2E0A0000000078810208AA
:1017F000300000000400FA0570471948006870477F
:1018000070B50446FFF758FC0546154804602846A5
:10181000FFF756FC70BD10B511480068401C104918
:10182000086003F0C0FF0446A06C401EA064A06CDA
:1018300018B9606CA06404F051FA04F06CFD10BD9E
:101840000146002902DA4FF0FF3007E064224A43E4
:1018500002F2E7324FF47A7392FBF3F07047000024
:101860007C00002000207047002070470020704757
:101870000020704710B5274C02E020688047241DE7
:1018800025488442F9D310BD10B5234C02E02068EE
:101890008047241D21488442F9D310BD10B5044669
:1018A000FFF7F2FFFEF752FD10BD1CB514200A2110
:1018B0004FF400630022CDE90010AFF21F0118A021
:1018C00004F0F7F8044624B9CB22174917A002F018
:1018D000ECFE204604F071F81CBD10B5FFF7ECFBE0
:1018E000FEF739FE02F00CFE04F0F5FD03F0BBFD3F
:1018F000FFF7DBFF04F0FBFD00F05BFB03F0F9FDFD
:10190000002010BD10B5FFF7D7FBFFF7E6FF002062
:1019100010BD0000742103087C2103088421030802
:101920006D61696E000000008B810208746964209B
:10193000213D2052545F4E554C4C00002DE9F041A2
:10194000064603F030FF08B103F099FE092003F0CA
:10195000B1FB044624B97C22F549F6A002F0A5FEAD
:10196000656810E0A5F10C0708223146384602F000
:10197000E2FA38B903F017FF08B103F08EFE3846DB
:10198000BDE8F0812D68201D8542EBD103F00BFFEF
:1019900008B103F082FE0020F2E770B504460D4660
:1019A000164614B94FF0FF3070BD2846FFF7C6FF4A
:1019B00010B14FF0FF30F7E72A460921204603F027
:1019C0008BFBE6820020A076208300BFECE710B5F9
:1019D000044624B95222DD49DDA002F066FE20460D
:1019E00003F052FC092804D05322D849DCA002F0AD
:1019F0005CFE204603F037FC20B95422D349E7A00F
:101A000002F053FE204603F094FB002010BD00209E
:101A100070472DE9F04106460C464027E01C20F0B7
:101A200003042744384602F085FF05462DB14022C5
:101A30000021284602F091F92E752846BDE8F08174
:101A400010B5044624B9BA22DE49C1A002F02DFE29
:101A5000204603F019FC092804D0BB22D949C0A0B4
:101A600002F023FE204603F0FEFB20B1BC22D54944
:101A7000D5A002F01AFE204603F05BFB204603F0DF
:101A80005EF810BD70B50446002524B9D122DB49AB
:101A9000AFA002F00AFE606A90B1A07D00F01000D5
:101AA00070B92046616A884705462DB12A4621460D
:101AB000D3A002F0F5FC03E0E08A40F01000E082E1
:101AC000284670BD70B504460E46002524B9F422A0
:101AD000D9499FA002F0E9FD204603F0D5FB092873
:101AE00004D0F522D4499EA002F0DFFDA07D00F0D5
:101AF000100088B9606A58B12046616A8847054677
:101B000035B12A462146BEA002F0CAFC284670BD67
:101B1000E08A40F01000E082A07D00F0080030B1C3
:101B2000207E00F0080010B16FF00600EFE7A06A19
:101B300028B131462046A26A9047054603E040F6A8
:101B40000F70304020830DB1A81D70B9208B40F07C
:101B500008002083A07E401CA076A07E28B940F219
:101B60002312B549B5A002F0A0FD2846CFE770B515
:101B7000044600252CB940F23512B54974A002F094
:101B800094FD204603F080FB092805D04FF49B729A
:101B9000AF4973A002F089FDA07E10B94FF0FF306D
:101BA00070BDA07E401EA076A07E08B10020F7E7A1
:101BB000E06A18B12046E16A884705460DB1A81DC4
:101BC00008B9002020832846EAE72DE9F0410446C1
:101BD0000D4616461F462CB940F25F129D495CA087
:101BE00002F063FD204603F04FFB092805D04FF4B7
:101BF000B07298495AA002F058FDA07E30B94FF05B
:101C0000FF3002F089F80020BDE8F081206B38B188
:101C10003B46324629462046D4F830C0E047F3E739
:101C20006FF0050002F078F80020EDE72DE9F041B3
:101C300004460D4616461F462CB94FF4C37286491A
:101C400043A002F032FD204603F01EFB092805D018
:101C500040F28712804942A002F027FDA07E30B9F1
:101C60004FF0FF3002F058F80020BDE8F081606BC3
:101C700038B13B46324629462046D4F834C0E047C6
:101C8000F3E76FF0050002F047F80020EDE770B5CC
:101C900004460D4616462CB940F2A7126F492CA0F7
:101CA00002F003FD204603F0EFFA092805D04FF4B7
:101CB000D4726A492AA002F0F8FCA06B28B132461F
:101CC00029462046A36B984770BD6FF00500FBE7DF
:101CD00070B504460D462CB940F2C11260491CA0F3
:101CE00002F0E3FC204603F0CFFA092805D04FF4B8
:101CF000E1725B491AA002F0D8FCE561002070BDDA
:101D000070B504460D462CB940F2D712554910A0C3
:101D100002F0CBFC204603F0B7FA092805D04FF4B7
:101D2000EC7250490EA002F0C0FC2562002070BD8C
:101D3000B4810208696E666F726D6174696F6E209E
:101D4000213D2052545F4E554C4C00009F810208AB
:101D500064657620213D2052545F4E554C4C000066
:101D600072745F6F626A6563745F6765745F7479CC
:101D7000706528266465762D3E706172656E7429E3
:101D8000203D3D2052545F4F626A6563745F436C2F
:101D90006173735F446576696365000072745F6F99
:101DA000626A6563745F69735F73797374656D6F7D
:101DB000626A65637428266465762D3E706172657B
:101DC0006E742900C381020872745F6F626A656372
:101DD000745F69735F73797374656D6F626A65634D
:101DE0007428266465762D3E706172656E742920B4
:101DF0003D3D2052545F46414C534500D581020879
:101E0000546F20696E697469616C697A65206465D4
:101E1000766963653A2573206661696C65642E2076
:101E2000546865206572726F7220636F6465206903
:101E3000732025640A000000E48102086465762DA1
:101E40003E7265665F636F756E7420213D203000C1
:101E5000F381020803820208128202082282020829
:101E6000348202084E8202082DE9F04105466FF0E7
:101E70000207FFF721F90646002409E0664850F8FA
:101E8000240020B9644840F82450002702E0641C74
:101E9000042CF3D300BF3046FFF712F93846BDE8F3
:101EA000F0812DE9F04105466FF00507FFF704F9D1
:101EB000064600240BE0584850F82400A84205D1FB
:101EC0000020554941F82400002702E0641C042C3E
:101ED000F1D300BF3046FFF7F3F83846BDE8F08194
:101EE00070B54EE000BFFFF7E7F8064601F0F2FEDE
:101EF00040B14A494AA002F0D3FAA022474952A071
:101F000002F0D3FB3046FFF7DBF800BFFFF7D4F851
:101F1000054600F078F830B34C480068A0F114048E
:101F200004F11400D0E900215160D0E900121160E1
:101F30004060006000BF03F0A2FBA06F10B120461C
:101F4000A16F8847204603F08EF9012808D120466A
:101F500003F0EFF803F0A1FB2846FFF7B1F870BDDE
:101F600003F09BFB03E02846FFF7AAF8F7E72846B3
:101F7000FFF7A6F8A06A02F0E2FD204603F047F959
:101F800000BF00F040F80028ACD100BFE7E70FE049
:101F9000002408E0204850F8240018B11E4951F8E8
:101FA00024008047641C042CF4D3FFF799FF00BF82
:101FB000EEE710B586B000241CE0224624A104A858
:101FC00002F0CFFA20211F224B01234800EB84208E
:101FD000CDE9013203910090204901EBC4100023A8
:101FE0001F4A04A903F087FC1C4901EBC41003F04D
:101FF000E4FC641C002CE0D006B010BD00211748A2
:1020000000EBC110704711490868884201D00120D7
:1020100070470020FCE70000280D002068820208BD
:1020200046756E6374696F6E5B25735D20736861BE
:102030006C6C206E6F742062652075736564206916
:102040006E204953520A0000300000007C0100203D
:102050007469646C6525640028090020A8080020C4
:102060008F1F00084268116042684A604160086042
:1020700070472DE9F04105460C469046204603F096
:1020800032FEB8F1000F03D0B8F1010F23D105E003
:1020900004F114012846FFF7E5FF1CE02E680FE06D
:1020A000A6F1140794F8350097F83510884206DA3F
:1020B00004F1140107F11400FFF7D4FF02E03668C1
:1020C000AE42EDD100BFAE4204D104F11401284666
:1020D000FFF7C8FF00BF00BF0020BDE8F08170B56A
:1020E00005460EE0FEF7E8FF06462868A0F1140456
:1020F0004FF0FF302063204603F022FC3046FEF70D
:10210000DFFF284601F089FD0028EBD0002070BDDC
:102110002DE9F04104460D4616461F4624B9CB2250
:10212000FD49FEA002F0C1FA2A460221204602F033
:10213000D3FF204601F079FDA68367720020BDE839
:10214000F08110B5044624B9E922F849F3A002F061
:10215000ACFA204603F098F8022804D0EA22F349AA
:10216000F34802F0A2FA204603F07DF820B9EB22F2
:10217000EE49F0A002F099FA04F11400FFF7AFFF66
:10218000204602F0D6FF002010BD2DE9F0410546A3
:102190000E46174600BFFEF78FFF804601F09AFDFE
:1021A00048B1F049F0A002F07BF940F20712ED4986
:1021B000F7A002F07AFA4046FEF782FF00BF2946F8
:1021C000022002F0D5FF044614B92046BDE8F08194
:1021D000204601F02AFDA68367722046F6E770B517
:1021E000044600BFFEF768FF054601F073FD48B1E5
:1021F000E849DDA002F054F94FF49372E549E4A0F8
:1022000002F053FA2846FEF75BFF00BF2CB940F2FC
:102210002912E049C1A002F048FA204603F034F840
:10222000022805D04FF49572DA49C14802F03DFA10
:10223000204603F018F828B140F22B12D549D6A059
:1022400002F033FA04F11400FFF749FF204602F0D0
:10225000DEFF002070BD2DE9F34105462DB940F2A7
:102260004712DC49ADA002F020FA284603F00CF832
:10227000022805D04FF4A472D649AD4802F015FAF1
:1022800000BFD548006818B12846D3490968884777
:1022900000BFFEF711FF064600BF00BFA88B002855
:1022A00006DDA88B401EA8833046FEF709FF57E0E5
:1022B000019830B93046FEF703FF6FF00100BDE82A
:1022C000FC8100BFFEF7F8FE074603F06CFA48B940
:1022D000C049C2A002F0E4F84FF4B472BD49ACA00A
:1022E00002F0E3F900BFFEF7E7FE804601F0F2FCE2
:1022F00048B1B8499CA002F0D3F84FF4B472B54984
:10230000A3A002F0D2F94046FEF7DAFE00BF38463D
:10231000FEF7D6FE00BF03F046FA04460020206315
:1023200000BF00BF6A7A214605F11400FFF7A1FE45
:10233000019800280BDD00BF00BF01AA002104F1B5
:102340004C0003F0B7FF04F14C0003F0E3FE30460D
:10235000FEF7B6FE03F01AF9206B08B1206BAEE76A
:1023600000BFAC48006818B12846AA4909688847E8
:1023700000BF0020A3E710B5044600212046FFF768
:102380006AFF10BD70B504462CB94FF4DA72A24949
:1023900062A002F08AF9204602F076FF022805D0FA
:1023A00040F2B5129C49624802F07FF900BF9B4899
:1023B000006818B1204699490968884700BF002580
:1023C000FEF77AFE064600BF00BF04F1140001F0DC
:1023D00024FC28B904F1140001F02FFC012502E0CF
:1023E000A08B401CA0833046FEF76AFE012D01D170
:1023F00003F0CCF8002070BD2DE9F04104460E46F4
:1024000015462CB940F2E512854944A002F04DF979
:10241000204602F039FF022805D04FF4F3728049BC
:10242000434802F042F9012E10D12F46FEF744FE38
:10243000804604F11400FFF752FEA7834046FEF7E2
:102440003FFE03F0A3F80020BDE8F0814FF0FF301D
:10245000FAE770B504460D4616462CB940F2122232
:10246000704971A002F021F92A460321204602F0AA
:1024700033FE204601F0D9FB0120A083002020621A
:10248000FF20A0770020E077667270BD10B504468B
:102490002CB940F23222694963A002F006F92046C5
:1024A00002F0F2FE032805D040F23322634964486B
:1024B00002F0FBF8204602F0D6FE28B94FF40D7268
:1024C0005E4960A002F0F1F804F11400FFF707FE86
:1024D000204602F02EFE002010BD2DE9F0410546F9
:1024E0000E4600BFFEF7E8FD074601F0F3FB48B1DA
:1024F00061491DA001F0D4FF40F24F225E4924A0A3
:1025000002F0D3F83846FEF7DBFD00BF2946032072
:1025100002F02EFE0446B1E07E82020873656D2053
:10252000213D2052545F4E554C4C00008A820208D7
:102530009414030872745F6F626A6563745F6973F1
:102540005F73797374656D6F626A6563742826734F
:10255000656D2D3E706172656E742E706172656E70
:10256000742900009882020846756E6374696F6E64
:102570005B25735D207368616C6C206E6F742062E4
:1025800065207573656420696E204953520A000006
:1025900030000000A682020872745F6F626A656391
:1025A000745F69735F73797374656D6F626A656375
:1025B00074282673656D2D3E706172656E742E7081
:1025C0006172656E7429203D3D2052545F46414C36
:1025D00053450000B48202086001002046756E6316
:1025E00074696F6E5B25735D207368616C6C206E1F
:1025F0006F742062652075736564206265666F7212
:1026000065207363686564756C65722073746172AC
:10261000740A000064010020C082020868010020E2
:10262000CF820208DE8202086D7574657820213D34
:102630002052545F4E554C4C00000000EC820208C2
:102640006815030872745F6F626A6563745F69730B
:102650005F73797374656D6F626A65637428266D44
:10266000757465782D3E706172656E742E7061723E
:10267000656E742900000000FC82020814B920462F
:10268000BDE8F081204601F0D0FA0120A0830020AF
:102690002062FF20A0770020E07766722046EFE7F7
:1026A00070B5044600BFFEF707FD054601F012FBBA
:1026B00058B1FD49AFF2501001F0F2FE4FF41C7218
:1026C000F949AFF2341001F0F0FF2846FEF7F8FCAC
:1026D00000BF34B940F27322F349AFF2B40001F005
:1026E000E4FF204602F0D0FD032805D04FF41D7210
:1026F000ED49EE4801F0D9FF204602F0B4FD28B1C3
:1027000040F27522E849EAA001F0CFFF04F114007D
:10271000FFF7E5FC204602F07AFD002070BD2DE9B0
:10272000F341044600BFFEF7C7FC074603F03BF841
:1027300058B9EF49AFF25C1001F0B2FE40F29122BD
:10274000EB49AFF2B41001F0B0FF00BFFEF7B4FCEC
:10275000804601F0BFFA58B1E549AFF2F41001F03C
:102760009FFE40F29122E249AFF2DC1001F09DFFA2
:102770004046FEF7A5FC00BF3846FEF7A1FC00BFAF
:1027800034B94FF42572DA49AFF2641001F08DFFCD
:10279000204602F079FD032805D040F29522D44965
:1027A000C24801F082FF02F0FEFF0546FEF784FCFE
:1027B000064600BFCF48006818B12046CD490968D9
:1027C000884700BF00BF00BF00202863206AA842DE
:1027D00003D1E07F401CE0774EE000BFA08B0028D3
:1027E0000ADDA08B401EA083256295F83500A077F6
:1027F000E07F401CE0773FE0019848B96FF00100AE
:1028000028633046FEF75CFC6FF00100BDE8FC81F8
:1028100000BF00BF95F83500216A91F83510884255
:1028200005DA05F135020221206A03F0EFFA627A37
:10283000294604F11400FFF71CFC019800280BDD69
:1028400000BF00BF01AA002105F14C0003F032FDDA
:1028500005F14C0003F05EFC3046FEF731FC02F05F
:1028600095FE286B28B1286B093000B9B6E7286BB4
:10287000CCE7FEF721FC06463046FEF721FC00BF00
:102880009D48006818B120469B490968884700BFE9
:102890000020BBE72DE9F047044634B940F21A3274
:1028A0009649AFF27C2001F000FF204602F0ECFCDC
:1028B000032805D040F21B3290497C4801F0F5FE18
:1028C000002600BFFEF7F8FB804602F06CFF58B907
:1028D0008A49AFF2F82001F0E3FD4FF448728749CE
:1028E000AFF2543001F0E1FE00BFFEF7E5FB814698
:1028F00001F0F0F958B18149AFF2943001F0D0FD08
:102900004FF448727D49AFF2783001F0CEFE484670
:10291000FEF7D6FB00BF4046FEF7D2FB00BF02F039
:1029200042FF0546FEF7C8FB074600BF00BF00BFD9
:102930007348006818B1204671490968884700BF8C
:10294000206AA84209D04FF0FF3028633846FEF7CE
:10295000B7FB4FF0FF30BDE8F087E07F401EE07727
:10296000E07F08BBA07F216A91F83510884205D02E
:1029700004F11E020221206A03F048FA04F1140057
:1029800001F04BF988B96069A0F1140500BF00BFE0
:10299000256295F83500A077E07F401CE07704F1D0
:1029A000140001F04AF9012606E0A08B401CA08328
:1029B00000202062FF20A0773846FEF781FB012E21
:1029C00001D102F0E3FD0020C5E770B504460D46D5
:1029D000164634B940F27D324A49AFF2B43001F0C4
:1029E00064FE204602F050FC032805D040F27E32FF
:1029F00044492E4801F059FE4FF0FF3070BD70B5CC
:102A000004460D4616462CB940F293323E493FA08B
:102A100001F04BFE2A460421204602F05DFB66725F
:102A2000204601F002F90020E06170BD10B50446B7
:102A30002CB940F2AF323A4934A001F036FE2046BC
:102A400002F022FC042805D04FF46C72344935485A
:102A500001F02BFE204602F006FC28B940F2B1320C
:102A60002F4931A001F021FE04F11400FFF737FBDC
:102A7000204602F05EFB002010BD2DE9F041054626
:102A80000E4600BFFEF718FB074601F023F950B1D0
:102A90003249AFF22C5001F003FD40F2CA322F4907
:102AA000AFF214505CE05DE00C8302086815030887
:102AB00072745F6F626A6563745F69735F73797361
:102AC00074656D6F626A65637428266D75746578C8
:102AD0002D3E706172656E742E706172656E742920
:102AE000203D3D2052545F46414C534500000000BC
:102AF0001C83020860010020640100202A83020870
:102B0000680100203B8302084C8302086576656EED
:102B10007420213D2052545F4E554C4C0000000063
:102B20005A8302082415030872745F6F626A656332
:102B3000745F69735F73797374656D6F626A6563DF
:102B40007428266576656E742D3E706172656E74AC
:102B50002E706172656E7429000000006A8302089D
:102B600001F0A3FD3846FEF7ABFA00BF294604206A
:102B700002F0FEFA044614B92046BDE8F081667200
:102B8000204601F052F80020E0612046F5E770B5DC
:102B9000044634B94FF47A72F449AFF2900001F070
:102BA00084FD204602F070FB042805D040F2E93293
:102BB000EE49EF4801F079FD204602F054FB28B1C0
:102BC00040F2EA32E949EBA001F06FFD00BFFEF7E9
:102BD00073FA054601F07EF858B1E449AFF2786027
:102BE00001F05EFC4FF47B72E049AFF25C6001F0F3
:102BF0005CFD2846FEF764FA00BF04F11400FFF7FD
:102C00006EFA204602F003FB002070BD2DE9F0476C
:102C100004460F4634B940F20B42E649AFF21410B5
:102C200001F043FD204602F02FFB042805D040F2BE
:102C30000C42E049CE4801F038FD1FB94FF0FF309B
:102C4000BDE8F0874FF00008FEF736FA8246E069EB
:102C50003843E06100BFD848006818B12046D64923
:102C60000968884700BF04F1140000F0D6FFC0BB1C
:102C7000666932E0A6F114054FF0FF3995F840007F
:102C800000F0010040B1E86BE1690840E96B88425F
:102C900011D14FF000090EE095F8400000F002005D
:102CA00048B1E86BE169084028B1E86BE169084088
:102CB000E8634FF000093668B9F1000F0DD195F8BF
:102CC000400000F0040018B1E069E96B8843E0615E
:102CD000284602F035FE4FF0010804F11400864248
:102CE000C8D15046FEF7ECF9B8F1010F01D102F05E
:102CF0004DFC0020A4E72DE9FF4F81B005460E46AC
:102D00001746DDF8388000BFFEF7D6F9009002F0D4
:102D10004AFD58B9A949AFF23C7001F0C1FB40F23D
:102D20006E42A649AFF2987001F0BFFC00BFFEF7FB
:102D3000C3F9834600F0CEFF58B1A049AFF2D87076
:102D400001F0AEFB40F26E429C49AFF2BC7001F064
:102D5000ACFC5846FEF7B4F900BF0098FEF7B0F996
:102D600000BF35B940F271429449AFF2602001F0E2
:102D70009CFC284602F088FA042805D040F27242F2
:102D80008E497B4801F091FC26B94FF0FF3005B029
:102D9000BDE8F08F4FF0FF3902F005FD0446002139
:102DA000216300BF8648006818B128468449096835
:102DB000884700BFFEF780F9824607F0010030B176
:102DC000E8693040B04212D14FF000090FE007F03F
:102DD000020028B1E869304048B14FF0000906E030
:102DE00040F291427549AFF6580001F05EFCB9F12E
:102DF000000F0DD1B8F1000F03D0E8693040C8F8DA
:102E0000000007F0040088B3E869B043E8612DE0F2
:102E1000049818B96FF00100206327E0E66384F896
:102E200040706A7A214605F11400FFF722F90498F0
:102E3000002809DD04AA002104F14C0003F03AFA4D
:102E400004F14C0003F066F95046FEF739F902F040
:102E50009DFB206B08B1206B99E7FEF72DF98246A8
:102E6000B8F1000F02D0E06BC8F800005046FEF742
:102E700027F900BF5348006818B12846514909682E
:102E8000884700BF206B82E72DE9F04104460D46DC
:102E9000174634B940F2E3424B49AFF2903001F0AB
:102EA00004FC204602F0F0F9042805D040F2E44288
:102EB00045492F4801F0F9FB012D10D1FEF7FCF830
:102EC000064604F11400FFF70AF90020E0613046DD
:102ED000FEF7F6F802F05AFB0020BDE8F0814FF053
:102EE000FF30FAE72DE9F04104460D4616461F462D
:102EF000DDF818802CB940F21152344934A001F0A9
:102F0000D4FB2A460521204602F0E6F884F8098021
:102F1000204600F08AFEE661278400206084A084B9
:102F2000E08404F1280000F075FE0020BDE8F08187
:102F300010B504462CB940F23452294924A001F0BE
:102F4000B4FB204602F0A0F9052805D040F2355226
:102F50002349244801F0A9FB204602F084F918B95E
:102F600040F236521E493FE041E000007A830208F9
:102F70002415030872745F6F626A6563745F697316
:102F80005F73797374656D6F626A65637428266513
:102F900076656E742D3E706172656E742E7061720E
:102FA000656E7429203D3D2052545F46414C534587
:102FB000000000008A83020868010020988302084C
:102FC0006001002064010020A6830208B783020884
:102FD0006D6220213D2052545F4E554C4C00000044
:102FE000C2830208AC150308FAA001F05EFB04F1ED
:102FF0001400FFF774F804F12800FFF770F820467A
:1030000002F097F8002010BD2DE9F04105460E466C
:10301000174600BFFEF750F8804600F05BFE58B13F
:10302000F849AFF6BC2001F03BFA40F25252F549A4
:10303000AFF6A42001F039FB4046FEF741F800BF8F
:103040002946052002F094F8044614B92046BDE84C
:10305000F0816772204600F0E8FD2684218C88000C
:1030600001F068FCE061E06920B9204602F0CFF889
:103070000020ECE700206084A084E08404F12800B4
:1030800000F0C8FD2046E2E770B5044600BFFEF739
:1030900013F8054600F01EFE58B1DB49AFF6383094
:1030A00001F0FEF940F27D52D749AFF61C3001F035
:1030B000FCFA2846FEF704F800BF34B94FF4B062BA
:1030C000D149AFF2F40001F0F0FA204602F0DCF84A
:1030D000052805D040F28152CB49CC4801F0E5FAF1
:1030E000204602F0C0F828B140F28252C649C8A07A
:1030F00001F0DBFA04F11400FEF7F1FF04F12800FF
:10310000FEF7EDFFE06901F01AFD204602F07FF8BE
:10311000002070BD2DE9F74F04460F4634B94FF437
:10312000B562CA49AFF2581001F0BFFA204602F06A
:10313000ABF8052805D040F2A952C449B34801F0C4
:10314000B4FA002602F02FFB054600BFC048006815
:1031500018B12046BE490968884700BFFDF7ACFF9B
:103160008046608C218C884208D1029830B9404654
:10317000FDF7A6FF6FF00200BDE8FE8F69E00020BA
:103180002863029828B94046FDF79AFF6FF00200C5
:10319000F2E700BFFDF790FF814602F004FB58B94B
:1031A000AA49AFF6C83001F07BF940F2CC52A749EA
:1031B000AFF6244001F079FA00BFFDF77DFF8246AB
:1031C00000F088FD58B1A149AFF6644001F068F9FC
:1031D00040F2CC529D49AFF6484001F066FA5046A5
:1031E000FDF76EFF00BF4846FDF76AFF00BF627A39
:1031F000294604F12800FEF73CFF029800280EDD66
:10320000FEF7FBFA064600BF00BF02AA002105F147
:103210004C0003F04FF805F14C0002F07BFF4046F4
:10322000FDF74EFF02F0B2F9286B08B1286BA3E757
:10323000FDF742FF8046029800280ADDFEF7DDFA1E
:10324000861B0298801B02900298002801DA002059
:103250000290608C218C884291D0A18CE06940F86A
:103260002170A08C401CA084A08C218C884201DBA2
:103270000020A084608C401C608404F1140000F0E5
:10328000CCFC50B904F1140000F0D7FC4046FDF727
:1032900017FF02F07BF900206EE74046FDF710FFB4
:1032A000002069E770B504460D46002229462046F5
:1032B000FFF730FF70BD2DE9F74F04460F4634B9D4
:1032C00040F23A626349AFF2F82001F0EEF920468D
:1032D00001F0DAFF052805D040F23B625D494B481A
:1032E00001F0E3F9002602F05EFA054600BF5A48F5
:1032F000006818B1204658490968884700BFFDF7A3
:10330000DBFE8046608C40B9029830B94046FDF73C
:10331000D7FE6FF00100BDE8FE8FB0E0002028630B
:10332000029830B94046FDF7CBFE6FF001002863EC
:10333000F1E700BFFDF7C0FE814602F034FA58B94C
:103340004449AFF6685001F0ABF84FF4CC62414904
:10335000AFF6C45001F0A9F900BFFDF7ADFE8246FB
:1033600000F0B8FC58B13B49AFF6046001F098F8A2
:103370004FF4CC623749AFF6E85001F096F9504669
:10338000FDF79EFE00BF4846FDF79AFE00BF627A39
:10339000294604F11400FEF76CFE029800280EDDA9
:1033A000FEF72BFA064600BF00BF02AA002105F176
:1033B0004C0002F07FFF05F14C0002F0ABFE4046EE
:1033C000FDF77EFE02F0E2F8286B08B1286BA2E759
:1033D00044E0000072745F6F626A6563745F6973D2
:1033E0005F73797374656D6F626A65637428266DA7
:1033F000622D3E706172656E742E706172656E74BE
:1034000029000000CF830208DC830208AC15030802
:1034100072745F6F626A6563745F69735F737973F7
:1034200074656D6F626A65637428266D622D3E70E7
:103430006172656E742E706172656E7429203D3DF7
:103440002052545F46414C5345000000E983020876
:1034500068010020F983020860010020FDF72CFEBE
:103460008046029800280ADDFEF7C7F9861B0298FD
:10347000801B02900298002801DA00200290608CE4
:1034800000283FF44BAFE18CE06950F82100386030
:10349000E08C401CE084E08C218C884201DB002021
:1034A000E084608C401E608404F1280000F0B5FBCD
:1034B00098B904F1280000F0C0FB4046FDF700FE7B
:1034C00000BFFA48006818B12046F84909688847E3
:1034D00000BF02F05BF800201DE74046FDF7F0FD5D
:1034E00000BFF248006818B12046F04909688847D3
:1034F00000BF00200FE72DE9F04104460D461746B6
:1035000034B94FF4D862EA49AFF23C5001F0CDF83B
:10351000204601F0B9FE052805D040F2C162E44919
:10352000E44801F0C2F8012D16D1FDF7C5FD0646AD
:1035300004F11400FEF7D3FD04F12800FEF7CFFDDF
:1035400000206084A084E0843046FDF7B9FD02F0DD
:103550001DF80020BDE8F0814FF0FF30FAE72DE9BB
:10356000F05F04460F4690469946DDE90AAB2CB958
:1035700040F2FD62D049D1A001F097F83A46062109
:10358000204601F0A9FD84F809B0204600F04DFB6B
:10359000C4F81C8009F1030020F003002084208C73
:1035A000001DBAFBF0F060840020A062E06220639E
:1035B000002508E0208C001DE16905FB0016206B4A
:1035C000306026636D1C608CA842F3DC0020A08470
:1035D000BDE8F09F10B504462CB940F22E72BB49ED
:1035E000B6A001F062F8204601F04EFE062805D094
:1035F00040F22F72B549B64801F057F8204601F065
:1036000032FE28B94FF4E662B049B2A001F04DF89D
:1036100004F11400FEF763FD204601F08AFD00204E
:1036200010BD70B5044600BFFDF746FD054600F02D
:1036300051FB48B1B349B44800F032FF40F28A72FE
:10364000B049B2A001F031F82846FDF739FD00BFBE
:103650002CB940F28D72AB4998A001F026F82046B3
:1036600001F012FE062805D040F28E72A549984856
:1036700001F01BF8204601F0F6FD28B140F28F72F0
:10368000A049A3A001F011F804F11400FEF727FDF2
:10369000E06901F054FA204601F0B9FD002070BD48
:1036A0002DE9F05F0746884691469A4600BFFDF730
:1036B00003FD834600F00EFB48B1A449924800F098
:1036C000EFFE4FF4EA62A14990A000F0EEFF5846E9
:1036D000FDF7F6FC00BF3946062001F049FD04461F
:1036E00014B92046BDE8F09F84F809A0204600F0F8
:1036F0009CFA08F1030020F003002084A4F8229033
:10370000218C091D628C01FB02F001F013F9E061CC
:10371000E06920B92046FFF784FF0020E2E700209F
:10372000A062E0622063002508E0208C001DE169B2
:1037300005FB0016206B306026636D1C608CA84270
:10374000F3DC0020A0842046CCE72DE9F0410446BC
:103750000F4616462CB940F2AF727D4957A000F0D3
:10376000A4FF204601F090FD062805D04FF4F66234
:103770007749574800F099FF2FB940F2B172744968
:1037800074A000F092FF2EB940F2B272704976A098
:1037900000F08BFF208CB04203D24FF0FF30BDE829
:1037A000F08100BF7348006818B12046714909686C
:1037B000884700BFFDF780FC8046256B2DB9404649
:1037C000FDF77EFC6FF00200E9E7286820634046C1
:1037D000FDF776FC0020286032463946281D00F0AF
:1037E000E0FAFDF769FC8046E06A08B1E06A05602E
:1037F000E562A06A00B9A562A08C401CA08404F117
:10380000140000F00AFA50B904F1140000F015FA9F
:103810004046FDF755FC01F0B9FE0020BFE74046E9
:10382000FDF74EFC0020BAE72DE9F04104460F46B3
:1038300016462CB940F609024F4920A000F035FF8A
:10384000204601F021FD062805D040F60A024A492B
:103850001F4800F02AFF2FB940F60B0246493DA051
:1038600000F023FF2EB940F60C0243493EA000F0C1
:103870001CFF208CB04203D24FF0FF30BDE8F08136
:1038800000BF3C48006818B120463A49096888479B
:1038900000BFFDF711FC8046256B2DB94046FDF7B2
:1038A0000FFC6FF00200E9E768E00000640100200F
:1038B00004840208AC150308128402086D712021EB
:1038C0003D2052545F4E554C4C0000001D840208B0
:1038D000DC14030872745F6F626A6563745F6973F6
:1038E0005F73797374656D6F626A65637428266DA2
:1038F000712D3E706172656E742E706172656E74AA
:103900002900000037840208682500083000000004
:1039100072745F6F626A6563745F69735F737973F2
:1039200074656D6F626A65637428266D712D3E70D3
:103930006172656E742E706172656E7429203D3DF2
:103940002052545F46414C53450000002A8402082F
:103950004484020862756666657220213D205254D7
:103960005F4E554C4C00000073697A6520213D2064
:1039700030000000680100204F840208286820639E
:103980004046FDF79DFB32463946281D00F009FAF6
:10399000FDF792FB8046A06A2860A562E06A00B944
:1039A000E562A08C401CA08404F1140000F035F9FD
:1039B00050B904F1140000F040F94046FDF780FBD7
:1039C00001F0E4FD002059E74046FDF779FB0020B7
:1039D00054E72DE9FF4F81B004460F46904634B9B5
:1039E00040F663029B49AFF22C1000F05EFE2046C9
:1039F00001F04AFC062805D040F664029549964835
:103A000000F053FE37B940F665029249AFF2BC00B0
:103A100000F04BFEB8F1000F06D140F666028D496A
:103A2000AFF2BC0000F041FE4FF0000901F0BBFE18
:103A3000054600BF8948006818B1204687490968D3
:103A4000884700BFFDF738FB8246A08C48B9049830
:103A500038B95046FDF734FB6FF0010005B0BDE802
:103A6000F08F6BE000BFFDF727FB009001F09BFE9D
:103A700050B978497A4800F013FD40F67C02754948
:103A8000AFF2781000F011FE00BFFDF715FB834682
:103A900000F020F958B16F497148743800F000FD0A
:103AA00040F67C026B49AFF29C1000F0FEFD5846D8
:103AB000FDF706FB00BF0098FDF702FB00BF0020EA
:103AC0002863049830B95046FDF7FAFA6FF0010008
:103AD0002863C3E7627A294604F11400FEF7C9FAA5
:103AE000049800280EDDFDF788FE814600BF00BF68
:103AF00004AA002105F14C0002F0DCFB05F14C00AA
:103B000002F008FB5046FDF7DBFA01F03FFD286BA1
:103B100008B1286BA2E7FDF7CFFA82460498002887
:103B20000CDDFDF76AFEA0EB09090498A0EB090083
:103B300004900498002801DA00200490A08C00284A
:103B400090D0A66A3068A062E06AB04201D100203D
:103B5000E062A08C401EA0845046FDF7B1FA208C94
:103B6000404501D2208C00E040460246311D3846D7
:103B700000F017F9FDF7A0FA8246206B306026634B
:103B80005046FDF79DFA00BF3648006818B1204640
:103B900034490968884700BF00205FE72DE9F041FC
:103BA00004460E46904634B940F6EB022E49AFF279
:103BB000F42000F07AFD204601F066FB062805D0CF
:103BC00040F6EC022849244800F06FFD012E1ED17A
:103BD000FDF772FA074604F11400FEF780FA0AE0D6
:103BE000A56A2868A062E06AA84201D10020E062CC
:103BF000206B28602563A06A0028F1D1A084384694
:103C0000FDF75EFA01F0C2FC0020BDE8F0814FF044
:103C1000FF30FAE74060006070470146086888425C
:103C200001D1012070470020FCE710B5044604F1E3
:103C30001400FFF7EFFF002010BD70B504462068A8
:103C4000A0F1140500BF00BF284601F079FE002056
:103C500070BD00005C840208DC14030860010020D1
:103C6000DC25000864010020678402081F49086001
:103C700070471F490860704710B500BF00BFFDF7CF
:103C80001BFA04461B480078401C1A49087000BF04
:103C90001648006810B115480068804700BF2046EC
:103CA000FDF70EFA10BD10B500BF00BFFDF704FA16
:103CB000044610480078401E0E49087000BF0C48AA
:103CC000006810B10A480068804700BF2046FDF731
:103CD000F7F910BD70B5FDF7EFF905460548047812
:103CE0002846FDF7EDF9204670BD00008000002059
:103CF000840000208800002010B5FFF7EBFF10B112
:103D0000FB48006810BD01F04EFD044614B9F848A8
:103D10000068F7E7206BF5E770B50446FFF7DAFFB8
:103D200010B1F348046070BD01F03DFD054615B9C2
:103D3000EF480460F7E72C6300BFF4E710B5FFF726
:103D4000C9FF08B1EA4810BD01F02DFD044614B1C9
:103D500004F13000F7E7E648F5E7F0B50C46054614
:103D6000E6B2042A15D300F0030797B9014646EAE4
:103D7000062343EA034304E008C108C108C108C19F
:103D8000103A102AF8D201E008C1121F042AFBD20F
:103D90000D4601E005F8016B171EA2F10102F9D1F1
:103DA000F0BD2DE9F0410F46164604463D46334628
:103DB000102B28D305F0030C04F003084CEA080C80
:103DC000BCF1000F1FD121462A4610E052F804CB67
:103DD00041F804CB52F804CB41F804CB52F804CBA1
:103DE00041F804CB52F804CB41F804CB103B102B24
:103DF000ECD204E052F804CB41F804CB1B1F042B97
:103E0000F8D20C46154603E015F801CB04F801CBB7
:103E1000B3F1000CA3F10103F6D1BDE8F08170B558
:103E20000C46014623468B4210D29D188D420DD977
:103E30001144134405E05D1E2B462E784D1E294685
:103E40002E70151EA2F10102F5D108E003E013F86F
:103E5000015B01F8015B151EA2F10102F7D170BDF3
:103E6000F0B5034600201C460D4608E026782F7862
:103E7000F61B301E00D004E0641C6D1C521E002A8C
:103E8000F4D800BFF0BD01460A4600E0521C10788D
:103E90000028FBD1501A7047F0B506460F46384649
:103EA000FFF7F1FF05460DB93046F0BD3046FFF78C
:103EB000EAFF044609E0641E2A4639463046FFF709
:103EC000CFFF08B93046F0E7761CAC42F3DA0020A9
:103ED000EBE730B503460C4600BF13F8011B14F89E
:103EE000012B412902DB5A2900DC2031412A02DB67
:103EF0005A2A00DC2032914201D10029EDD1881AE2
:103F000030BD70B50346A2B118460C4600BF14F888
:103F1000016B00F8016B3EB902E0002500F8015B7F
:103F2000551E2A1EF9D102E0551E2A1EEFD100BFF0
:103F300000BF184670BD30B5034600200BE011F8F5
:103F4000015B1C78641B64B2201E02D113F8015B74
:103F500005B902E0521E002AF1D100BF30BD024671
:103F600001E0521C491C107818B110780B78984267
:103F7000F7D010780B78C01A704702460B461146EE
:103F800000E0491C087810B1881A9842F9DB881AB9
:103F9000704770B504462046FFF775FF451C28465C
:103FA00000F0C8FC06460EB9002070BD2A46214626
:103FB0003046FFF7F6FE3046F7E770472DE9F04F41
:103FC00086B00D469C46DDE9106401960F9B04F017
:103FD0004008B8F1000F02D0DFF8188101E0DFF8E7
:103FE0001881CDF8008004F01008B8F1000F01D05E
:103FF00024F0010404F00108B8F1000F02D04FF0E2
:10400000300801E04FF02008C246002704F0020803
:10401000B8F1000F11D0002A02DA2D2752420CE02D
:1040200004F00408B8F1000F01D02B2705E004F0DC
:104030000808B8F1000F00D02027002142B94FF046
:10404000300B8846491C0DF1080909F808B01DE03D
:104050001AE0E146B9F10A0F08D14FF00A0BB2FBA2
:10406000FBFE0BFB1E28B2FBFBF202E002F00F0886
:10407000120900BFDDF8009019F808B08846491C05
:104080000DF1080909F808B0002AE2D1B14200DDBB
:104090000E469B1B04F01108B8F1000F10D117B1A8
:1040A000002B00DD5B1E06E0A84203D84FF020087D
:1040B00080F80080401CB3F10008A3F10103F3DC99
:1040C00027B1A84201D807705B1E401C04F01008FD
:1040D000B8F1000F0AD104E0A84201D880F800A08E
:1040E000401CB3F10008A3F10103F5DC0DE0000072
:1040F0008C0000208685020875850208A84203D836
:104100004FF0300880F80080401CB046761E88458D
:10411000F4DC08E0A84205D80DF1080818F8018081
:1041200080F80080401CB1F10008A1F1010104DD1C
:10413000DDF80480B8F1000FECD106E0A84203D806
:104140004FF0200880F80080401CB3F10008A3F174
:104150000103F3DC06B0BDE8F08F0146002009E062
:104160000B685A1C0A601A7800EB800302EB4302CA
:10417000A2F130000A681278303A0A2AF0D3704768
:104180002DE9FF4F89B0804644460A984044461EB8
:10419000464504D24FF0FF36A6EB08000A906FE1C7
:1041A0000B980078252806D0B44202D80B980078E6
:1041B0002070641C61E1002526E00B98401C0B90E8
:1041C0000B9800782D2802D145F010051CE00B98C3
:1041D00000782B2802D145F0040515E00B980078F3
:1041E000202802D145F008050EE00B98007823281E
:1041F00002D145F0200507E00B980078302802D165
:1042000045F0010500E000E0D7E700BF4FF0FF37C1
:104210000B98007830380A2804D20BA8FFF79DFFCE
:1042200007460EE00B9800782A280AD10B98401C0C
:104230000B900C9880C80C90002F02DA7F4245F05A
:1042400010054FF0FF390B9800782E281CD10B98E1
:10425000401C0B900B98007830380A2804D20BA829
:10426000FFF77BFF81460AE00B9800782A2806D1E9
:104270000B98401C0B900C9850F8049B0C90B9F1D3
:10428000000F01DA4FF00009002004900B9800782D
:10429000682803D00B9800786C2805D10B9800781B
:1042A00004900B98401C0B900A2005900B98007806
:1042B0006F2875D00CDC632813D004DC252870D05F
:1042C00058286FD18DE064286DD06928F9D18FE02E
:1042D00070286AD0732825D0752878D07828F0D136
:1042E00082E005F0100040B904E0B44201D820207B
:1042F0002070641C781E071EF7DC0C9810F8041B55
:104300000C90C8B20790B44201D807982070641C82
:1043100004E0B44201D820202070641C781E071EDF
:10432000F7DCAAE00C98006806900C98001D0C9031
:10433000069808B9EBA006900698FFF7A4FD8346FF
:10434000B9F1000F02DDCB4500DDCB4605F01000D2
:1043500048B904E0B44201D820202070641C3846DB
:104360007F1E5845F6DC002008900BE0B44202D8CE
:10437000069800782070641C0698401C06900898E7
:10438000401C089008985845F0DB04E0B44201D87E
:1043900020202070641C38467F1E5845F6DC6CE0F7
:1043A0001CE015E028E022E0FFE7781C10B90827A0
:1043B00045F00105CDE9007902950C9804C8102359
:1043C00031460C902046FFF7F9FD044655E012E017
:1043D000B44201D825202070641C4EE008200590CE
:1043E0001DE045F0400500BF1020059017E000BF1C
:1043F00045F0020500BF12E0B44201D8252020702C
:10440000641C0B98007830B1B44202D80B98007845
:104410002070641C02E00B98401E0B902DE000BF42
:1044200004986C2807D10C9850F804AB0C9005F058
:104430000200B8B116E0049868280BD10C9830F847
:10444000041B1FFA81FA0C9005F0020050B10FFA1C
:104450008AFA07E00C9850F804AB0C9005F00200C3
:1044600000B100BFCDE900790295524631462046A1
:10447000059BFFF7A3FD044600BF0B98401C0B9063
:104480000B98007800287FF48BAEB44201D82070DE
:1044900001E000203070A4EB08000DB0BDE8F08F03
:1044A0000FB438B505A800907F219048009B049A6E
:1044B000FFF766FE04467F2C00D97F248C480068F5
:1044C00018B98A48FFF779FD15E089480068058B1F
:1044D00087480068008B40F04000854909680883E0
:1044E0002346824A002182480068FDF79FFB8048EE
:1044F0000068058300BF0020009038BC5DF814FB05
:1045000008B57CA0FFF7CCFF7DA0FFF7C9FF85A011
:10451000012300220421009085A0FFF7C1FF8CA099
:10452000FFF7BEFF08BD0FB4F8B504460D4609A855
:10453000009029462046009B089AFFF721FE064678
:10454000002000903046F8BC5DF814FB37B50546F6
:104550000C4622464FF0FF312846029BFFF710FE23
:104560003EBD0FB438B5044606A800902046009A18
:104570000599FFF7EBFF054600200090284638BC60
:104580005DF814FB5A480068704770B505465848F6
:1045900006682846FDF7D2F9044664B1544800681D
:1045A00018B153480068FDF7E2FA43212046FDF7B1
:1045B00089FA4F480460304670BD70B5044604B9AE
:1045C00070BD4B48006818B92046FFF7F6FC19E0AB
:1045D00047480068058B46480068008B40F0400063
:1045E0004349096808832046FFF74DFC06463346D9
:1045F000224600213E480068FDF718FB3C48006851
:10460000058300BF00BFDBE72DE9F04780460C467D
:104610000426761EA01920EA060408EB0600B04323
:1046200000EB0409484600F085F9054665B1601EB7
:10463000284008B92F1904E0601E2844611E20EAB2
:10464000010747F8045C3D462846BDE8F08770B591
:10465000044654F8045C284600F071FA70BD014627
:1046600009B900207047C8B220B1C8B2434A105CF3
:10467000401CF7E701F47F4028B14048C1F307220E
:10468000805C0930EEE701F47F0028B13B48C1F3BC
:104690000742805C1130E5E7384800EB1160007894
:1046A0001930DFE7364908607047F8B504460D4613
:1046B0001646002000903248006858B933462A4612
:1046C000214630A0FFF7ECFE00BF9DF80000002857
:1046D000FBD005E0324629462046294B1B68984707
:1046E000F8BD0000284E554C4C290000380D002024
:1046F000900000200A205C207C202F0A000000008F
:104700002D205254202D20202020205468726561D5
:1047100064204F7065726174696E67205379737499
:10472000656D0A004665622031382032303139002B
:10473000202F207C205C202020202025642E256432
:104740002E2564206275696C642025730A000000C0
:104750002032303036202D203230313920436F70F6
:104760007972696768742062792072742D74687236
:10477000656164207465616D0A000000758402083B
:104780009400002028257329206173736572746971
:104790006F6E206661696C65642061742066756E59
:1047A0006374696F6E3A25732C206C696E65206E98
:1047B000756D6265723A2564200A0000F049086050
:1047C0007047F0490860704770B50446EE480068CD
:1047D000844204D2A122ED49EDA0FFF766FFF44820
:1047E0000068844204D3A222E849F2A0FFF75DFFEB
:1047F000608820B1A322E549F9A0FFF756FFE249FE
:10480000606809684518AC4215D0688898B9E848CE
:10481000006885420FD0F6480068A84201D1F448EC
:10482000046068686060D8480068201AD64A6968E1
:10483000126811448860D449A06809684618A642E5
:1048400011D0708878B9EA480068A04201D1E848E0
:10485000066060687060CC480068301ACA4A6168B7
:1048600012681144886070BD2DE9F04705460E4678
:10487000E81C20F0030726F0030800BFFCF71CFC2F
:104880008146FFF727FA40B1DA49DBA0FFF708FEBF
:10489000D222D849E2A0FFF708FF4846FCF710FCF7
:1048A00000BFB8F1180F09D9A8F11800B84205D314
:1048B000A8EB07001838DB49086006E032462946B5
:1048C000D9A0FFF7EDFDBDE8F087AF48076000BF56
:1048D00000BF04684FF4F5502080D24800680C30C7
:1048E00060600020A0606080A74960680968084493
:1048F000AF4908604FF4F550096808800120AC49C1
:1049000009684880C74800680C30A94909684860B0
:10491000C44800680C30A649096888600023012259
:10492000D0A1D248FDF7F4FB97480068B049086071
:1049300000BFC8E72DE9F047054615B90020BDE8DE
:10494000F08700BFFCF7B8FB8146FFF7C3F948B119
:10495000C749A9A0FFF7A4FD4FF48C72C449B0A0C9
:10496000FFF7A3FE4846FCF7ABFB00BFE81C20F0B6
:104970000300A84201D000BF01E000BF00BFE81C57
:1049800020F00305A7480068854203D900BF00BF97
:104990000020D4E70C2D00D20C254FF0FF31B34896
:1049A000FDF759FC9248006877490968461ABBE050
:1049B000754800688419608800287BD106F10C00D6
:1049C0006168081AA84275D306F10C006168091ADB
:1049D00005F11800814230D306F10C0000EB050808
:1049E0006948006800EB08074FF4F5503880002054
:1049F000788060687860BE60C4F8048001206080C0
:104A00008848796800680C30814205D05E49786832
:104A100009680844C0F808809648016805F10C0050
:104A2000084494490860944800680968884219D28B
:104A3000904800689049086014E001206080524965
:104A400060680968611A401A8A49096808448949F6
:104A50000860894800680968884203D28548006870
:104A6000854908604FF4F550208061480068844211
:104A700024D107E05E48006840684349096808445B
:104A80005B4908605A480068408828B15848006867
:104A9000474909688842EDD155480068444909688A
:104AA00088420BD052480068408838B14FF4C17238
:104AB0006F4900E034E071A0FFF7F7FD6B48FDF7A8
:104AC00061FC04F10C00284439490968884205D981
:104AD0004FF4C37266497348FFF7E7FD04F0030023
:104AE00028B140F2871262496F48FFF7DEFD04F0FB
:104AF000030028B14FF4C4725D496CA0FFF7D5FDE7
:104B000000BF00BF00BF1E48006828B1294604F15D
:104B10000C001B4A1268904700BF04F10C000EE71E
:104B200019480068304446683E480068401BB0425F
:104B30003FF63EAF4D48FDF725FC0020FFE670B57F
:104B4000054605B970BD00BFFCF7B6FA0646FFF78B
:104B5000C1F848B1614928A0FFF7A2FC40F2292220
:104B60005E492FA0FFF7A1FD3046FCF7A9FA00BF70
:104B700005F0030018B140F22B225849B0E0B2E032
:104B8000980000209C000020A000002097850208CB
:104B90002872745F75696E74385F74202A296D6598
:104BA0006D203E3D20686561705F7074720000008A
:104BB000A40000202872745F75696E74385F7420D9
:104BC0002A296D656D203C202872745F75696E74AA
:104BD000385F74202A29686561705F656E64000023
:104BE0006D656D2D3E75736564203D3D2030000080
:104BF000A8000020A285020846756E6374696F6E76
:104C00005B25735D207368616C6C206E6F7420622D
:104C100065207573656420696E204953520A00004F
:104C200030000000AC0000206D656D20696E697475
:104C30002C206572726F7220626567696E206164F4
:104C4000647265737320307825782C20616E64203F
:104C5000656E6420616464726573732030782578B2
:104C60000A0000006865617000000000B80D0020B7
:104C7000B6850208B0000020B400002028286C6629
:104C8000726565203D3D20686561705F656E6429D1
:104C9000207C7C2028216C667265652D3E757365CD
:104CA0006429290098160308F0150308282828729B
:104CB000745F75626173655F74296D656D29202667
:104CC000202852545F414C49474E5F53495A452072
:104CD0002D20312929203D3D20300000CB850208C0
:104CE0009EA0FFF7E2FCA9480068854203D3A848CC
:104CF0000068854205D34FF40B72A649A648FFF71A
:104D0000D4FC00BFA548006818B12846A34909682B
:104D1000884700BF9D480068854203D39C480068CF
:104D2000854202D300BF00BF0CE7A5F10C0400BF11
:104D300000BF4FF0FF319A48FDF78DFA608818B137
:104D40002088B0F5F55F08D096A0FFF7A9FB23886F
:104D5000628821469AA0FFF7A3FB608828B940F239
:104D60004B228C49A2A0FFF7A0FC2088B0F5F55F8C
:104D700005D04FF413728749A0A0FFF796FC0020DE
:104D800060804FF4F5502080A3480068844201D22F
:104D9000A14804607D4960680968611A401A9F490A
:104DA0000968081A9D4908602046FFF70DFD7C48F8
:104DB000FDF7E8FA00BFC5E62DE9F84F06460C46B8
:104DC00000BFFCF779F90090FEF784FF58B19449D1
:104DD000AFF2DC10FFF764FB4FF4D6729049AFF2EC
:104DE000C010FFF762FC0098FCF76AF900BFE01CF6
:104DF00020F003048B480068844204D900BF00BF40
:104E00000020BDE8F88F24B93046FFF798FE002057
:104E1000F7E71EB92046FFF78DFDF2E74FF0FF31AF
:104E20005F48FDF718FA59480068864203D358488E
:104E30000068864204D35A48FDF7A4FA3046E0E7FA
:104E4000A6F10C0851480068A8EB0009D8F8040046
:104E5000A0EB0900A0F10C07A74204D15048FDF7D0
:104E600091FA3046CDE704F11800B8422DD2381B34
:104E70006A490968081A6949086009F10C0000EBE1
:104E8000040A4248006800EB0A054FF4F5502880F8
:104E900000206880D8F804006860C5F80890C8F859
:104EA00004A06048696800680C30814205D0374929
:104EB000686809680844C0F808A02846FFF784FC21
:104EC0003748FDF75FFA30469BE73548FDF75AFA59
:104ED0002046FFF72FFD8346BBF1000F0CD0A74201
:104EE00001D2384600E02046024631465846FEF7D9
:104EF00058FF3046FFF723FE584682E770B5044658
:104F00000D4604FB05F0FFF715FD06462EB104FB28
:104F100005F200213046FEF720FF304670BD10B18B
:104F2000404B1B68036011B13C4B1B680B6012B116
:104F30003D4B1B681360704710B53A4801683BA0B1
:104F4000FFF7AEFA354801683DA0FFF7A9FA3648E9
:104F5000016840A0FFF7A4FA10BD000028282872BD
:104F6000745F75626173655F7429726D656D292068
:104F700026202852545F414C49474E5F53495A45B9
:104F8000202D20312929203D3D203000A000002087
:104F9000A4000020CB8502083C1603089C000020DA
:104FA000B80D0020746F2066726565206120626113
:104FB00064206461746120626C6F636B3A0A000064
:104FC0006D656D3A203078253038782C2075736502
:104FD0006420666C61673A2025642C206D616769E6
:104FE0006320636F64653A203078253034780A0096
:104FF0006D656D2D3E757365640000006D656D2DEA
:105000003E6D61676963203D3D20484541505F4DDD
:105010004147494300000000A8000020B0000020E4
:10502000C0850208AC000020B4000020746F7461D9
:105030006C206D656D6F72793A2025640A0000005E
:1050400075736564206D656D6F7279203A202564F3
:105050000A0000006D6178696D756D20616C6C6F80
:105060006361746564206D656D6F72793A202564A3
:105070000A0000000268516002680A60016048602E
:105080007047D0E900215160D0E900121160406002
:1050900000607047A64908607047A64908607047DD
:1050A000A54908607047A54908607047A449086091
:1050B00070477047024600210AE0A24800EB011049
:1050C0000078904203D19F4800EB01107047491CC3
:1050D0000A29F2DB0020F9E72DE9F04104460D46EC
:1050E00016462846FFF7E6FF074627B9FA229649F3
:1050F00096A0FFF7DAFA45F08000207208223146C8
:105100002046FEF7FEFE00BF8948006818B1204621
:1051100087490968884700BFFBF7CEFF804604F146
:105120000C01381DFFF7A6FF4046FBF7C9FFBDE89D
:10513000F08170B504462CB940F2251289498AA045
:10514000FFF7B3FA00BF7B48006818B120467949E1
:105150000968884700BF00202072FBF7ADFF0546B5
:1051600004F10C00FFF78DFF2846FBF7A9FF70BD87
:105170002DE9F04706460F4600BFFBF79DFF81462D
:10518000FEF7A8FD48B17D497DA0FFF789F94FF4EE
:10519000A4727A4984A0FFF788FA4846FBF790FF8B
:1051A00000BF3046FFF786FF05462DB94FF4A672C3
:1051B000724966A0FFF779FAE868FFF7BBFB04467F
:1051C00014B90020BDE8F08700212046EA68FEF708
:1051D000C4FD267200206072082239462046FEF780
:1051E00090FE00BF5248006818B120465049096837
:1051F000884700BFFBF760FF804604F10C01281DC3
:10520000FFF738FF4046FBF75BFF2046DAE770B553
:1052100004462CB94FF4C372644953A0FFF745FA12
:10522000207A00F0800028B140F287125F4960A028
:10523000FFF73BFA00BF3F48006818B120463D49E0
:105240000968884700BF00202072FBF735FF05463C
:1052500004F10C00FFF715FF2846FBF731FF20464D
:10526000FFF76DFC70BD10B504462CB94FF4D47235
:105270005A493DA0FFF719FA207A00F0800008B1E2
:10528000012010BD0020FCE710B504462CB940F207
:10529000BB12534934A0FFF708FA207A20F08000AF
:1052A00010BD2DE9F04705460E464FF000080027D7
:1052B00000240DB10C2E02DD0020BDE8F08700BFF8
:1052C000FBF7FAFE8146FEF705FD48B145492CA0E3
:1052D000FFF7E6F840F2D712424933A0FFF7E5F9AD
:1052E0004846FBF7EDFE00BF00F0C9F954B930465F
:1052F000FFF7E0FE04462CB94FF4F072394913A0D1
:10530000FFF7D3F967680CE0A7F10C0808222946DB
:105310004046FEF710FE18B900F0BFF94046CCE752
:105320003F68201D8742EFD100F0B7F90020C4E7A5
:10533000580100205C010020600100206401002071
:1053400068010020B8000020D3850208696E666FEE
:10535000726D6174696F6E20213D2052545F4E550D
:105360004C4C0000E28502086F626A65637420217C
:105370003D2052545F4E554C4C000000F38502080E
:1053800046756E6374696F6E5B25735D207368612B
:105390006C6C206E6F742062652075736564206983
:1053A0006E204953520A00003000000006860208B1
:1053B00021286F626A6563742D3E747970652026BA
:1053C0002052545F4F626A6563745F436C6173730C
:1053D0005F53746174696329000000001786020836
:1053E0003186020844860208BD490860704770B5DE
:1053F000044624B95322BB49BBA0FFF756F9A06A63
:105400000078232809D1A16AE069884205D9D4E946
:105410000A010844E16988420CD22146B7A0FFF78F
:105420003FF803F0B7F8FBF747FE054600BF002D35
:10543000FDD108E0A06A2030E169814203D821460D
:10544000B5A0FFF72DF870BD70B50446C0480068E0
:10545000FFF705F9451EBF4850F83500A0F11406C6
:105460002560304670BD10B50020BB49088000BFE4
:1054700000BF002405E0B74901EBC40000F02CF99F
:10548000641C202CF7DB0020B1490860B34800F011
:1054900023F910BD70B504462CB940F2F122B04991
:1054A00091A0FFF702F9FBF707FE054600BF00BF1A
:1054B00004F11400D0E900215160D0E9001211601C
:1054C0004060006000BF94F83510A24A02EBC100B2
:1054D0000168814201D1012100E0002129B19C48ED
:1054E000A16B006888439A4908602846FBF7E8FDED
:1054F00070BD38B56846FFF7A7FF044699480460B9
:105500002046FFF7C7FF032084F8340004F11C0095
:10551000FBF71FFE38BD70B504462CB94FF424725A
:10552000914971A0FFF7C1F8FBF7C6FD05468D480C
:105530000068844208D194F8340020F00F0040F055
:10554000030084F834001DE014F8340F20F00F003D
:1055500040F0010020706278343C7E4B03EBC200C7
:1055600004F114014268116042684A6041600860B9
:1055700000BF00BF00BF7649A06B096808437449AB
:10558000086000BF2846FBF79BFD70BDF8B5FBF730
:1055900093FD06467048008800286BD16C4800686F
:1055A000002866D000276846FFF74EFF04466D4886
:1055B000006890F8340000F00F0003280AD1694811
:1055C000006890F835000099884202D26548046866
:1055D00000E0012763480068844239D0634900989D
:1055E000087060480568046000BF3D48006820B14D
:1055F000214628463A4A1268904700BF17B128460C
:10560000FFF789FF2046FFF745FF94F8340020F0AC
:105610000F0040F0030084F8340000BF00BF2046B4
:10562000FFF7E5FE5248007848B904F11C0105F186
:105630001C00FBF748FD3046FBF742FD1EE000BFB3
:1056400000BF04F11C0105F11C00FBF73CFD0FE05D
:1056500044480068FFF71EFF4248006890F8340095
:1056600020F00F0040F003003E49096881F8340043
:1056700000BF00BF3046FBF723FD00BFF8BD10B5EB
:10568000FBF71AFD044634480088401C00B232493A
:1056900008802046FBF714FD10BD10B5FBF70CFD8C
:1056A00004462D480088401E00B22B490880084659
:1056B000B0F90000002807DC002008802046FBF736
:1056C000FFFCFFF763FF02E02046FBF7F9FC10BD8B
:1056D0002148008880B27047406000607047000039
:1056E0008401002053860208746872656164202179
:1056F0003D2052545F4E554C4C000000746872655A
:1057000061643A257320737461636B206F766572F0
:10571000666C6F770A0000007761726E696E673A97
:1057200020257320737461636B20697320636C6F31
:10573000736520746F20656E64206F6620737461DA
:10574000636B20616464726573732E0A000000004D
:105750006C010020D80D0020700100207C01002089
:1057600087860208740100206D86020878010020F7
:10577000880000200268516002680A600160486089
:105780007047D0E900215160D0E9001211604060FB
:1057900000607047F84908607047F8490860704732
:1057A000F74908607047F7480068704770B5FFF721
:1057B000FAFF0446FBF780FC05462046FFF76AFE29
:1057C000042084F8340004F14C0000F033FC20463F
:1057D000FFF749FD012805D1A06F18B92046FFF752
:1057E000A8FC04E004F11401E748FFF7C3FF2846D2
:1057F000FBF766FCFFF7CAFE70BD70B505462C4688
:105800002CB940F2F222E149E1A0FEF74EFF94F8F4
:10581000340000F00F00022805D040F2F322DB49EB
:10582000E0A0FEF742FF2046FFF72EFD012805D03D
:105830004FF43D72D549EA48FEF737FF6FF001009B
:10584000206304F11400FFF79CFF2046FFF763FE7E
:10585000FFF79CFE70BD2DE9FC5F04468B461646A3
:105860001F46DDE90C9ADDE90E5804F11400406092
:10587000006000BF26626762C4F82890C4F82CA0BC
:105880002321D4E90A02FEF768FAD4E90A3C63440A
:105890001A1FAFF2E703D4E90801FBF7A7FCE061A8
:1058A000202D04DB9522CF49CFA0FEF7FEFE303439
:1058B000A57165710020A060C4F81480C4F8188038
:1058C00020602071A064E064303C00902346AFF279
:1058D000D5022146019004F14C0000F08EFB00BF80
:1058E000A748006818B12046A5490968884700BF45
:1058F0000020BDE8FC9F2DE9FF5F04460D461746DA
:1059000098460EAE96E8400E24B9EF22BF49A0A0FB
:10591000FEF7CBFE26B9F022BC49BDA0FEF7C5FEBE
:105920002A4601212046FFF7D7FB43463A4629463F
:1059300020468DE8400EFFF78EFF04B0BDE8F09FD3
:1059400070B504462CB940F2C522B74990A0FEF7C5
:10595000ACFE2046FFF798FC012805D040F2C62295
:10596000B1499F48FEF7A1FE00BF00BF94F8340084
:1059700000F00F00022804D000BF00BF4FF0FF303E
:1059800070BDFBF799FB054604F11400FFF7F9FE23
:1059900004F14C0000F05BFC2846FBF791FB20462D
:1059A000FFF7B9FD00BF7548006818B1204673497C
:1059B0000968884700BF0020E2E710B504462CB90B
:1059C00040F22112994972A0FEF76FFE94F834005C
:1059D00000F00F0028B14FF49172944994A0FEF7A3
:1059E00064FE2046FFF750FC012805D040F2231248
:1059F0008E497B48FEF759FE94F8360084F835004E
:105A000094F8351001208840A06300BF00BF022039
:105A100084F834002046FFF793FFFFF7C4FE08B177
:105A2000FFF7B4FD002010BD70B504462CB94FF44B
:105A3000A7728D4956A0FEF738FE2046FFF724FCDA
:105A4000012805D040F24F1287496548FEF72DFE28
:105A50002046FFF708FC28B94FF4A872824983A0BA
:105A6000FEF723FE94F8340000F00F0010B120463A
:105A7000FFF710FD04F14C0000F0DCFA042084F87C
:105A800034002046FFF7EFFB012805D1A06F18B9BD
:105A90002046FFF74EFB0AE0FBF70EFB054604F13C
:105AA00014013948FFF766FE2846FBF709FB002082
:105AB00070BD2DE9FF5F06460F4690461D46DDE9A5
:105AC0000EAB31460120FFF753FB8146B9F1000FC1
:105AD00003D1002004B0BDE8F09F2846FEF72AFF5E
